{
  "contractName": "MyToken",
  "abi": [
    {
      "inputs": [],
      "stateMutability": "nonpayable",
      "type": "constructor"
    },
    {
      "anonymous": false,
      "inputs": [
        {
          "indexed": true,
          "internalType": "address",
          "name": "owner",
          "type": "address"
        },
        {
          "indexed": true,
          "internalType": "address",
          "name": "approved",
          "type": "address"
        },
        {
          "indexed": true,
          "internalType": "uint256",
          "name": "tokenId",
          "type": "uint256"
        }
      ],
      "name": "Approval",
      "type": "event"
    },
    {
      "anonymous": false,
      "inputs": [
        {
          "indexed": true,
          "internalType": "address",
          "name": "owner",
          "type": "address"
        },
        {
          "indexed": true,
          "internalType": "address",
          "name": "operator",
          "type": "address"
        },
        {
          "indexed": false,
          "internalType": "bool",
          "name": "approved",
          "type": "bool"
        }
      ],
      "name": "ApprovalForAll",
      "type": "event"
    },
    {
      "anonymous": false,
      "inputs": [
        {
          "indexed": true,
          "internalType": "address",
          "name": "from",
          "type": "address"
        },
        {
          "indexed": true,
          "internalType": "address",
          "name": "to",
          "type": "address"
        },
        {
          "indexed": true,
          "internalType": "uint256",
          "name": "tokenId",
          "type": "uint256"
        }
      ],
      "name": "Transfer",
      "type": "event"
    },
    {
      "inputs": [
        {
          "internalType": "address",
          "name": "to",
          "type": "address"
        },
        {
          "internalType": "uint256",
          "name": "tokenId",
          "type": "uint256"
        }
      ],
      "name": "approve",
      "outputs": [],
      "stateMutability": "nonpayable",
      "type": "function"
    },
    {
      "inputs": [
        {
          "internalType": "address",
          "name": "owner",
          "type": "address"
        }
      ],
      "name": "balanceOf",
      "outputs": [
        {
          "internalType": "uint256",
          "name": "",
          "type": "uint256"
        }
      ],
      "stateMutability": "view",
      "type": "function",
      "constant": true
    },
    {
      "inputs": [
        {
          "internalType": "uint256",
          "name": "tokenId",
          "type": "uint256"
        }
      ],
      "name": "getApproved",
      "outputs": [
        {
          "internalType": "address",
          "name": "",
          "type": "address"
        }
      ],
      "stateMutability": "view",
      "type": "function",
      "constant": true
    },
    {
      "inputs": [
        {
          "internalType": "address",
          "name": "owner",
          "type": "address"
        },
        {
          "internalType": "address",
          "name": "operator",
          "type": "address"
        }
      ],
      "name": "isApprovedForAll",
      "outputs": [
        {
          "internalType": "bool",
          "name": "",
          "type": "bool"
        }
      ],
      "stateMutability": "view",
      "type": "function",
      "constant": true
    },
    {
      "inputs": [],
      "name": "name",
      "outputs": [
        {
          "internalType": "string",
          "name": "",
          "type": "string"
        }
      ],
      "stateMutability": "view",
      "type": "function",
      "constant": true
    },
    {
      "inputs": [
        {
          "internalType": "uint256",
          "name": "",
          "type": "uint256"
        }
      ],
      "name": "onSale",
      "outputs": [
        {
          "internalType": "bool",
          "name": "",
          "type": "bool"
        }
      ],
      "stateMutability": "view",
      "type": "function",
      "constant": true
    },
    {
      "inputs": [
        {
          "internalType": "uint256",
          "name": "tokenId",
          "type": "uint256"
        }
      ],
      "name": "ownerOf",
      "outputs": [
        {
          "internalType": "address",
          "name": "",
          "type": "address"
        }
      ],
      "stateMutability": "view",
      "type": "function",
      "constant": true
    },
    {
      "inputs": [
        {
          "internalType": "uint256",
          "name": "",
          "type": "uint256"
        }
      ],
      "name": "price",
      "outputs": [
        {
          "internalType": "uint256",
          "name": "",
          "type": "uint256"
        }
      ],
      "stateMutability": "view",
      "type": "function",
      "constant": true
    },
    {
      "inputs": [
        {
          "internalType": "address",
          "name": "from",
          "type": "address"
        },
        {
          "internalType": "address",
          "name": "to",
          "type": "address"
        },
        {
          "internalType": "uint256",
          "name": "tokenId",
          "type": "uint256"
        }
      ],
      "name": "safeTransferFrom",
      "outputs": [],
      "stateMutability": "nonpayable",
      "type": "function"
    },
    {
      "inputs": [
        {
          "internalType": "address",
          "name": "from",
          "type": "address"
        },
        {
          "internalType": "address",
          "name": "to",
          "type": "address"
        },
        {
          "internalType": "uint256",
          "name": "tokenId",
          "type": "uint256"
        },
        {
          "internalType": "bytes",
          "name": "data",
          "type": "bytes"
        }
      ],
      "name": "safeTransferFrom",
      "outputs": [],
      "stateMutability": "nonpayable",
      "type": "function"
    },
    {
      "inputs": [
        {
          "internalType": "address",
          "name": "operator",
          "type": "address"
        },
        {
          "internalType": "bool",
          "name": "approved",
          "type": "bool"
        }
      ],
      "name": "setApprovalForAll",
      "outputs": [],
      "stateMutability": "nonpayable",
      "type": "function"
    },
    {
      "inputs": [
        {
          "internalType": "bytes4",
          "name": "interfaceId",
          "type": "bytes4"
        }
      ],
      "name": "supportsInterface",
      "outputs": [
        {
          "internalType": "bool",
          "name": "",
          "type": "bool"
        }
      ],
      "stateMutability": "view",
      "type": "function",
      "constant": true
    },
    {
      "inputs": [],
      "name": "symbol",
      "outputs": [
        {
          "internalType": "string",
          "name": "",
          "type": "string"
        }
      ],
      "stateMutability": "view",
      "type": "function",
      "constant": true
    },
    {
      "inputs": [
        {
          "internalType": "uint256",
          "name": "tokenId",
          "type": "uint256"
        }
      ],
      "name": "tokenURI",
      "outputs": [
        {
          "internalType": "string",
          "name": "",
          "type": "string"
        }
      ],
      "stateMutability": "view",
      "type": "function",
      "constant": true
    },
    {
      "inputs": [
        {
          "internalType": "address",
          "name": "from",
          "type": "address"
        },
        {
          "internalType": "address",
          "name": "to",
          "type": "address"
        },
        {
          "internalType": "uint256",
          "name": "tokenId",
          "type": "uint256"
        }
      ],
      "name": "transferFrom",
      "outputs": [],
      "stateMutability": "nonpayable",
      "type": "function"
    },
    {
      "inputs": [
        {
          "internalType": "uint256",
          "name": "_id",
          "type": "uint256"
        },
        {
          "internalType": "string",
          "name": "_name",
          "type": "string"
        },
        {
          "internalType": "string",
          "name": "_description",
          "type": "string"
        }
      ],
      "name": "createNFT",
      "outputs": [],
      "stateMutability": "nonpayable",
      "type": "function"
    },
    {
      "inputs": [
        {
          "internalType": "uint256",
          "name": "_id",
          "type": "uint256"
        }
      ],
      "name": "ownership",
      "outputs": [
        {
          "internalType": "address",
          "name": "",
          "type": "address"
        }
      ],
      "stateMutability": "view",
      "type": "function",
      "constant": true
    },
    {
      "inputs": [
        {
          "internalType": "uint256",
          "name": "_id",
          "type": "uint256"
        }
      ],
      "name": "getMetadata",
      "outputs": [
        {
          "internalType": "string",
          "name": "",
          "type": "string"
        }
      ],
      "stateMutability": "view",
      "type": "function",
      "constant": true
    },
    {
      "inputs": [
        {
          "internalType": "address",
          "name": "_to",
          "type": "address"
        },
        {
          "internalType": "uint256",
          "name": "_id",
          "type": "uint256"
        }
      ],
      "name": "transferNFT",
      "outputs": [],
      "stateMutability": "nonpayable",
      "type": "function"
    },
    {
      "inputs": [
        {
          "internalType": "uint256",
          "name": "_id",
          "type": "uint256"
        },
        {
          "internalType": "uint256",
          "name": "_price",
          "type": "uint256"
        }
      ],
      "name": "listNFTForSale",
      "outputs": [],
      "stateMutability": "nonpayable",
      "type": "function"
    },
    {
      "inputs": [
        {
          "internalType": "uint256",
          "name": "_id",
          "type": "uint256"
        }
      ],
      "name": "removeNFTFromSale",
      "outputs": [],
      "stateMutability": "nonpayable",
      "type": "function"
    },
    {
      "inputs": [
        {
          "internalType": "uint256",
          "name": "_id",
          "type": "uint256"
        }
      ],
      "name": "purchaseNFT",
      "outputs": [],
      "stateMutability": "payable",
      "type": "function",
      "payable": true
    }
  ],
  "bytecode": "0x60806040523480156200001157600080fd5b506040518060400160405280600781526020017f4d79546f6b656e000000000000000000000000000000000000000000000000008152506040518060400160405280600281526020017f4d54000000000000000000000000000000000000000000000000000000000000815250816000908051906020019062000096929190620000b8565b508060019080519060200190620000af929190620000b8565b505050620001cc565b828054620000c69062000197565b90600052602060002090601f016020900481019282620000ea576000855562000136565b82601f106200010557805160ff191683800117855562000136565b8280016001018555821562000136579182015b828111156200013557825182559160200191906001019062000118565b5b50905062000145919062000149565b5090565b5b80821115620001645760008160009055506001016200014a565b5090565b7f4e487b7100000000000000000000000000000000000000000000000000000000600052602260045260246000fd5b60006002820490506001821680620001b057607f821691505b602082108103620001c657620001c562000168565b5b50919050565b6136a980620001dc6000396000f3fe6080604052600436106101355760003560e01c806394ab67fe116100ab578063a574cea41161006f578063a574cea414610439578063b2733b3914610476578063b43a76f11461049f578063b88d4fde146104dc578063c87b56dd14610505578063e985e9c51461054257610135565b806394ab67fe1461035657806395d89b411461037f578063a02e5107146103aa578063a0f45b69146103d3578063a22cb4651461041057610135565b8063150bde03116100fd578063150bde031461023157806323b872dd1461024d57806326a49e371461027657806342842e0e146102b35780636352211e146102dc57806370a082311461031957610135565b806301ffc9a71461013a578063043668811461017757806306fdde03146101a0578063081812fc146101cb578063095ea7b314610208575b600080fd5b34801561014657600080fd5b50610161600480360381019061015c91906122cb565b61057f565b60405161016e9190612313565b60405180910390f35b34801561018357600080fd5b5061019e600480360381019061019991906124aa565b610661565b005b3480156101ac57600080fd5b506101b5610671565b6040516101c291906125bd565b60405180910390f35b3480156101d757600080fd5b506101f260048036038101906101ed91906125df565b610703565b6040516101ff919061264d565b60405180910390f35b34801561021457600080fd5b5061022f600480360381019061022a9190612694565b610749565b005b61024b600480360381019061024691906125df565b610860565b005b34801561025957600080fd5b50610274600480360381019061026f91906126d4565b610acc565b005b34801561028257600080fd5b5061029d600480360381019061029891906125df565b610b2c565b6040516102aa9190612736565b60405180910390f35b3480156102bf57600080fd5b506102da60048036038101906102d591906126d4565b610b44565b005b3480156102e857600080fd5b5061030360048036038101906102fe91906125df565b610b64565b604051610310919061264d565b60405180910390f35b34801561032557600080fd5b50610340600480360381019061033b9190612751565b610bea565b60405161034d9190612736565b60405180910390f35b34801561036257600080fd5b5061037d60048036038101906103789190612694565b610ca1565b005b34801561038b57600080fd5b50610394610e50565b6040516103a191906125bd565b60405180910390f35b3480156103b657600080fd5b506103d160048036038101906103cc91906125df565b610ee2565b005b3480156103df57600080fd5b506103fa60048036038101906103f591906125df565b610fe7565b604051610407919061264d565b60405180910390f35b34801561041c57600080fd5b50610437600480360381019061043291906127aa565b610ff9565b005b34801561044557600080fd5b50610460600480360381019061045b91906125df565b61100f565b60405161046d91906125bd565b60405180910390f35b34801561048257600080fd5b5061049d600480360381019061049891906127ea565b6110ca565b005b3480156104ab57600080fd5b506104c660048036038101906104c191906125df565b6111e8565b6040516104d39190612313565b60405180910390f35b3480156104e857600080fd5b5061050360048036038101906104fe91906128cb565b611208565b005b34801561051157600080fd5b5061052c600480360381019061052791906125df565b61126a565b60405161053991906125bd565b60405180910390f35b34801561054e57600080fd5b506105696004803603810190610564919061294e565b6112d2565b6040516105769190612313565b60405180910390f35b60007f80ac58cd000000000000000000000000000000000000000000000000000000007bffffffffffffffffffffffffffffffffffffffffffffffffffffffff1916827bffffffffffffffffffffffffffffffffffffffffffffffffffffffff1916148061064a57507f5b5e139f000000000000000000000000000000000000000000000000000000007bffffffffffffffffffffffffffffffffffffffffffffffffffffffff1916827bffffffffffffffffffffffffffffffffffffffffffffffffffffffff1916145b8061065a575061065982611366565b5b9050919050565b61066c8383836113d0565b505050565b606060008054610680906129bd565b80601f01602080910402602001604051908101604052809291908181526020018280546106ac906129bd565b80156106f95780601f106106ce576101008083540402835291602001916106f9565b820191906000526020600020905b8154815290600101906020018083116106dc57829003601f168201915b5050505050905090565b600061070e826114d1565b6004600083815260200190815260200160002060009054906101000a900473ffffffffffffffffffffffffffffffffffffffff169050919050565b600061075482610b64565b90508073ffffffffffffffffffffffffffffffffffffffff168373ffffffffffffffffffffffffffffffffffffffff16036107c4576040517f08c379a00000000000000000000000000000000000000000000000000000000081526004016107bb90612a60565b60405180910390fd5b8073ffffffffffffffffffffffffffffffffffffffff166107e361151c565b73ffffffffffffffffffffffffffffffffffffffff16148061081257506108118161080c61151c565b6112d2565b5b610851576040517f08c379a000000000000000000000000000000000000000000000000000000000815260040161084890612af2565b60405180910390fd5b61085b8383611524565b505050565b6007600082815260200190815260200160002060009054906101000a900460ff166108c0576040517f08c379a00000000000000000000000000000000000000000000000000000000081526004016108b790612b5e565b60405180910390fd5b6009600082815260200190815260200160002054341015610916576040517f08c379a000000000000000000000000000000000000000000000000000000000815260040161090d90612bca565b60405180910390fd5b60096000828152602001908152602001600020543411156109c557346009600083815260200190815260200160002054346109519190612c19565b1061095f5761095e612c4d565b5b3373ffffffffffffffffffffffffffffffffffffffff166108fc6009600084815260200190815260200160002054346109989190612c19565b9081150290604051600060405180830381858888f193505050501580156109c3573d6000803e3d6000fd5b505b6109ce81610b64565b73ffffffffffffffffffffffffffffffffffffffff166108fc60096000848152602001908152602001600020549081150290604051600060405180830381858888f19350505050158015610a26573d6000803e3d6000fd5b50610a3a610a3382610b64565b33836115dd565b60006008600083815260200190815260200160002060006101000a81548160ff021916908315150217905550803373ffffffffffffffffffffffffffffffffffffffff16610a8783610b64565b73ffffffffffffffffffffffffffffffffffffffff167fddf252ad1be2c89b69c2b068fc378daa952ba7f163c4a11628f55a4df523b3ef60405160405180910390a450565b610add610ad761151c565b826118d6565b610b1c576040517f08c379a0000000000000000000000000000000000000000000000000000000008152600401610b1390612cee565b60405180910390fd5b610b278383836115dd565b505050565b60096020528060005260406000206000915090505481565b610b5f83838360405180602001604052806000815250611208565b505050565b600080610b708361196b565b9050600073ffffffffffffffffffffffffffffffffffffffff168173ffffffffffffffffffffffffffffffffffffffff1603610be1576040517f08c379a0000000000000000000000000000000000000000000000000000000008152600401610bd890612d5a565b60405180910390fd5b80915050919050565b60008073ffffffffffffffffffffffffffffffffffffffff168273ffffffffffffffffffffffffffffffffffffffff1603610c5a576040517f08c379a0000000000000000000000000000000000000000000000000000000008152600401610c5190612dec565b60405180910390fd5b600360008373ffffffffffffffffffffffffffffffffffffffff1673ffffffffffffffffffffffffffffffffffffffff168152602001908152602001600020549050919050565b6007600082815260200190815260200160002060009054906101000a900460ff16610d01576040517f08c379a0000000000000000000000000000000000000000000000000000000008152600401610cf890612b5e565b60405180910390fd5b3373ffffffffffffffffffffffffffffffffffffffff16610d2182610b64565b73ffffffffffffffffffffffffffffffffffffffff1614610d77576040517f08c379a0000000000000000000000000000000000000000000000000000000008152600401610d6e90612e7e565b60405180910390fd5b600073ffffffffffffffffffffffffffffffffffffffff168273ffffffffffffffffffffffffffffffffffffffff1603610de6576040517f08c379a0000000000000000000000000000000000000000000000000000000008152600401610ddd90612f10565b60405180910390fd5b610df1338383610b44565b808273ffffffffffffffffffffffffffffffffffffffff163373ffffffffffffffffffffffffffffffffffffffff167fddf252ad1be2c89b69c2b068fc378daa952ba7f163c4a11628f55a4df523b3ef60405160405180910390a45050565b606060018054610e5f906129bd565b80601f0160208091040260200160405190810160405280929190818152602001828054610e8b906129bd565b8015610ed85780601f10610ead57610100808354040283529160200191610ed8565b820191906000526020600020905b815481529060010190602001808311610ebb57829003601f168201915b5050505050905090565b6007600082815260200190815260200160002060009054906101000a900460ff16610f42576040517f08c379a0000000000000000000000000000000000000000000000000000000008152600401610f3990612b5e565b60405180910390fd5b3373ffffffffffffffffffffffffffffffffffffffff16610f6282610b64565b73ffffffffffffffffffffffffffffffffffffffff1614610fb8576040517f08c379a0000000000000000000000000000000000000000000000000000000008152600401610faf90612e7e565b60405180910390fd5b60006008600083815260200190815260200160002060006101000a81548160ff02191690831515021790555050565b6000610ff282610b64565b9050919050565b61100b61100461151c565b83836119a8565b5050565b60606007600083815260200190815260200160002060009054906101000a900460ff16611071576040517f08c379a000000000000000000000000000000000000000000000000000000000815260040161106890612b5e565b60405180910390fd5b600060066000848152602001908152602001600020600001600660008581526020019081526020016000206001016040516020016110b092919061314b565b604051602081830303815290604052905080915050919050565b6007600083815260200190815260200160002060009054906101000a900460ff1661112a576040517f08c379a000000000000000000000000000000000000000000000000000000000815260040161112190612b5e565b60405180910390fd5b3373ffffffffffffffffffffffffffffffffffffffff1661114a83610b64565b73ffffffffffffffffffffffffffffffffffffffff16146111a0576040517f08c379a000000000000000000000000000000000000000000000000000000000815260040161119790612e7e565b60405180910390fd5b80600960008481526020019081526020016000208190555060016008600084815260200190815260200160002060006101000a81548160ff0219169083151502179055505050565b60086020528060005260406000206000915054906101000a900460ff1681565b61121961121361151c565b836118d6565b611258576040517f08c379a000000000000000000000000000000000000000000000000000000000815260040161124f90612cee565b60405180910390fd5b61126484848484611b14565b50505050565b6060611275826114d1565b600061127f611b70565b9050600081511161129f57604051806020016040528060008152506112ca565b806112a984611b87565b6040516020016112ba9291906131d7565b6040516020818303038152906040525b915050919050565b6000600560008473ffffffffffffffffffffffffffffffffffffffff1673ffffffffffffffffffffffffffffffffffffffff16815260200190815260200160002060008373ffffffffffffffffffffffffffffffffffffffff1673ffffffffffffffffffffffffffffffffffffffff16815260200190815260200160002060009054906101000a900460ff16905092915050565b60007f01ffc9a7000000000000000000000000000000000000000000000000000000007bffffffffffffffffffffffffffffffffffffffffffffffffffffffff1916827bffffffffffffffffffffffffffffffffffffffffffffffffffffffff1916149050919050565b6007600084815260200190815260200160002060009054906101000a900460ff1615611431576040517f08c379a000000000000000000000000000000000000000000000000000000000815260040161142890613247565b60405180910390fd5b6040518060400160405280838152602001828152506006600085815260200190815260200160002060008201518160000190805190602001906114759291906121bc565b5060208201518160010190805190602001906114929291906121bc565b509050506114a03384611c55565b60016007600085815260200190815260200160002060006101000a81548160ff021916908315150217905550505050565b6114da81611e72565b611519576040517f08c379a000000000000000000000000000000000000000000000000000000000815260040161151090612d5a565b60405180910390fd5b50565b600033905090565b816004600083815260200190815260200160002060006101000a81548173ffffffffffffffffffffffffffffffffffffffff021916908373ffffffffffffffffffffffffffffffffffffffff160217905550808273ffffffffffffffffffffffffffffffffffffffff1661159783610b64565b73ffffffffffffffffffffffffffffffffffffffff167f8c5be1e5ebec7d5bd14f71427d1e84f3dd0314c0f7b2291e5b200ac8c7c3b92560405160405180910390a45050565b8273ffffffffffffffffffffffffffffffffffffffff166115fd82610b64565b73ffffffffffffffffffffffffffffffffffffffff1614611653576040517f08c379a000000000000000000000000000000000000000000000000000000000815260040161164a906132d9565b60405180910390fd5b600073ffffffffffffffffffffffffffffffffffffffff168273ffffffffffffffffffffffffffffffffffffffff16036116c2576040517f08c379a00000000000000000000000000000000000000000000000000000000081526004016116b99061336b565b60405180910390fd5b6116cf8383836001611eb3565b8273ffffffffffffffffffffffffffffffffffffffff166116ef82610b64565b73ffffffffffffffffffffffffffffffffffffffff1614611745576040517f08c379a000000000000000000000000000000000000000000000000000000000815260040161173c906132d9565b60405180910390fd5b6004600082815260200190815260200160002060006101000a81549073ffffffffffffffffffffffffffffffffffffffff02191690556001600360008573ffffffffffffffffffffffffffffffffffffffff1673ffffffffffffffffffffffffffffffffffffffff168152602001908152602001600020600082825403925050819055506001600360008473ffffffffffffffffffffffffffffffffffffffff1673ffffffffffffffffffffffffffffffffffffffff16815260200190815260200160002060008282540192505081905550816002600083815260200190815260200160002060006101000a81548173ffffffffffffffffffffffffffffffffffffffff021916908373ffffffffffffffffffffffffffffffffffffffff160217905550808273ffffffffffffffffffffffffffffffffffffffff168473ffffffffffffffffffffffffffffffffffffffff167fddf252ad1be2c89b69c2b068fc378daa952ba7f163c4a11628f55a4df523b3ef60405160405180910390a46118d18383836001611eb9565b505050565b6000806118e283610b64565b90508073ffffffffffffffffffffffffffffffffffffffff168473ffffffffffffffffffffffffffffffffffffffff161480611924575061192381856112d2565b5b8061196257508373ffffffffffffffffffffffffffffffffffffffff1661194a84610703565b73ffffffffffffffffffffffffffffffffffffffff16145b91505092915050565b60006002600083815260200190815260200160002060009054906101000a900473ffffffffffffffffffffffffffffffffffffffff169050919050565b8173ffffffffffffffffffffffffffffffffffffffff168373ffffffffffffffffffffffffffffffffffffffff1603611a16576040517f08c379a0000000000000000000000000000000000000000000000000000000008152600401611a0d906133d7565b60405180910390fd5b80600560008573ffffffffffffffffffffffffffffffffffffffff1673ffffffffffffffffffffffffffffffffffffffff16815260200190815260200160002060008473ffffffffffffffffffffffffffffffffffffffff1673ffffffffffffffffffffffffffffffffffffffff16815260200190815260200160002060006101000a81548160ff0219169083151502179055508173ffffffffffffffffffffffffffffffffffffffff168373ffffffffffffffffffffffffffffffffffffffff167f17307eab39ab6107e8899845ad3d59bd9653f200f220920489ca2b5937696c3183604051611b079190612313565b60405180910390a3505050565b611b1f8484846115dd565b611b2b84848484611ebf565b611b6a576040517f08c379a0000000000000000000000000000000000000000000000000000000008152600401611b6190613469565b60405180910390fd5b50505050565b606060405180602001604052806000815250905090565b606060006001611b9684612046565b01905060008167ffffffffffffffff811115611bb557611bb461237f565b5b6040519080825280601f01601f191660200182016040528015611be75781602001600182028036833780820191505090505b509050600082602001820190505b600115611c4a578080600190039150507f3031323334353637383961626364656600000000000000000000000000000000600a86061a8153600a8581611c3e57611c3d613489565b5b04945060008503611bf5575b819350505050919050565b600073ffffffffffffffffffffffffffffffffffffffff168273ffffffffffffffffffffffffffffffffffffffff1603611cc4576040517f08c379a0000000000000000000000000000000000000000000000000000000008152600401611cbb90613504565b60405180910390fd5b611ccd81611e72565b15611d0d576040517f08c379a0000000000000000000000000000000000000000000000000000000008152600401611d0490613570565b60405180910390fd5b611d1b600083836001611eb3565b611d2481611e72565b15611d64576040517f08c379a0000000000000000000000000000000000000000000000000000000008152600401611d5b90613570565b60405180910390fd5b6001600360008473ffffffffffffffffffffffffffffffffffffffff1673ffffffffffffffffffffffffffffffffffffffff16815260200190815260200160002060008282540192505081905550816002600083815260200190815260200160002060006101000a81548173ffffffffffffffffffffffffffffffffffffffff021916908373ffffffffffffffffffffffffffffffffffffffff160217905550808273ffffffffffffffffffffffffffffffffffffffff16600073ffffffffffffffffffffffffffffffffffffffff167fddf252ad1be2c89b69c2b068fc378daa952ba7f163c4a11628f55a4df523b3ef60405160405180910390a4611e6e600083836001611eb9565b5050565b60008073ffffffffffffffffffffffffffffffffffffffff16611e948361196b565b73ffffffffffffffffffffffffffffffffffffffff1614159050919050565b50505050565b50505050565b6000611ee08473ffffffffffffffffffffffffffffffffffffffff16612199565b15612039578373ffffffffffffffffffffffffffffffffffffffff1663150b7a02611f0961151c565b8786866040518563ffffffff1660e01b8152600401611f2b94939291906135e5565b6020604051808303816000875af1925050508015611f6757506040513d601f19601f82011682018060405250810190611f649190613646565b60015b611fe9573d8060008114611f97576040519150601f19603f3d011682016040523d82523d6000602084013e611f9c565b606091505b506000815103611fe1576040517f08c379a0000000000000000000000000000000000000000000000000000000008152600401611fd890613469565b60405180910390fd5b805181602001fd5b63150b7a0260e01b7bffffffffffffffffffffffffffffffffffffffffffffffffffffffff1916817bffffffffffffffffffffffffffffffffffffffffffffffffffffffff19161491505061203e565b600190505b949350505050565b600080600090507a184f03e93ff9f4daa797ed6e38ed64bf6a1f01000000000000000083106120a4577a184f03e93ff9f4daa797ed6e38ed64bf6a1f010000000000000000838161209a57612099613489565b5b0492506040810190505b6d04ee2d6d415b85acef810000000083106120e1576d04ee2d6d415b85acef810000000083816120d7576120d6613489565b5b0492506020810190505b662386f26fc10000831061211057662386f26fc10000838161210657612105613489565b5b0492506010810190505b6305f5e1008310612139576305f5e100838161212f5761212e613489565b5b0492506008810190505b612710831061215e57612710838161215457612153613489565b5b0492506004810190505b60648310612181576064838161217757612176613489565b5b0492506002810190505b600a8310612190576001810190505b80915050919050565b6000808273ffffffffffffffffffffffffffffffffffffffff163b119050919050565b8280546121c8906129bd565b90600052602060002090601f0160209004810192826121ea5760008555612231565b82601f1061220357805160ff1916838001178555612231565b82800160010185558215612231579182015b82811115612230578251825591602001919060010190612215565b5b50905061223e9190612242565b5090565b5b8082111561225b576000816000905550600101612243565b5090565b6000604051905090565b600080fd5b600080fd5b60007fffffffff0000000000000000000000000000000000000000000000000000000082169050919050565b6122a881612273565b81146122b357600080fd5b50565b6000813590506122c58161229f565b92915050565b6000602082840312156122e1576122e0612269565b5b60006122ef848285016122b6565b91505092915050565b60008115159050919050565b61230d816122f8565b82525050565b60006020820190506123286000830184612304565b92915050565b6000819050919050565b6123418161232e565b811461234c57600080fd5b50565b60008135905061235e81612338565b92915050565b600080fd5b600080fd5b6000601f19601f8301169050919050565b7f4e487b7100000000000000000000000000000000000000000000000000000000600052604160045260246000fd5b6123b78261236e565b810181811067ffffffffffffffff821117156123d6576123d561237f565b5b80604052505050565b60006123e961225f565b90506123f582826123ae565b919050565b600067ffffffffffffffff8211156124155761241461237f565b5b61241e8261236e565b9050602081019050919050565b82818337600083830152505050565b600061244d612448846123fa565b6123df565b90508281526020810184848401111561246957612468612369565b5b61247484828561242b565b509392505050565b600082601f83011261249157612490612364565b5b81356124a184826020860161243a565b91505092915050565b6000806000606084860312156124c3576124c2612269565b5b60006124d18682870161234f565b935050602084013567ffffffffffffffff8111156124f2576124f161226e565b5b6124fe8682870161247c565b925050604084013567ffffffffffffffff81111561251f5761251e61226e565b5b61252b8682870161247c565b9150509250925092565b600081519050919050565b600082825260208201905092915050565b60005b8381101561256f578082015181840152602081019050612554565b8381111561257e576000848401525b50505050565b600061258f82612535565b6125998185612540565b93506125a9818560208601612551565b6125b28161236e565b840191505092915050565b600060208201905081810360008301526125d78184612584565b905092915050565b6000602082840312156125f5576125f4612269565b5b60006126038482850161234f565b91505092915050565b600073ffffffffffffffffffffffffffffffffffffffff82169050919050565b60006126378261260c565b9050919050565b6126478161262c565b82525050565b6000602082019050612662600083018461263e565b92915050565b6126718161262c565b811461267c57600080fd5b50565b60008135905061268e81612668565b92915050565b600080604083850312156126ab576126aa612269565b5b60006126b98582860161267f565b92505060206126ca8582860161234f565b9150509250929050565b6000806000606084860312156126ed576126ec612269565b5b60006126fb8682870161267f565b935050602061270c8682870161267f565b925050604061271d8682870161234f565b9150509250925092565b6127308161232e565b82525050565b600060208201905061274b6000830184612727565b92915050565b60006020828403121561276757612766612269565b5b60006127758482850161267f565b91505092915050565b612787816122f8565b811461279257600080fd5b50565b6000813590506127a48161277e565b92915050565b600080604083850312156127c1576127c0612269565b5b60006127cf8582860161267f565b92505060206127e085828601612795565b9150509250929050565b6000806040838503121561280157612800612269565b5b600061280f8582860161234f565b92505060206128208582860161234f565b9150509250929050565b600067ffffffffffffffff8211156128455761284461237f565b5b61284e8261236e565b9050602081019050919050565b600061286e6128698461282a565b6123df565b90508281526020810184848401111561288a57612889612369565b5b61289584828561242b565b509392505050565b600082601f8301126128b2576128b1612364565b5b81356128c284826020860161285b565b91505092915050565b600080600080608085870312156128e5576128e4612269565b5b60006128f38782880161267f565b94505060206129048782880161267f565b93505060406129158782880161234f565b925050606085013567ffffffffffffffff8111156129365761293561226e565b5b6129428782880161289d565b91505092959194509250565b6000806040838503121561296557612964612269565b5b60006129738582860161267f565b92505060206129848582860161267f565b9150509250929050565b7f4e487b7100000000000000000000000000000000000000000000000000000000600052602260045260246000fd5b600060028204905060018216806129d557607f821691505b6020821081036129e8576129e761298e565b5b50919050565b7f4552433732313a20617070726f76616c20746f2063757272656e74206f776e6560008201527f7200000000000000000000000000000000000000000000000000000000000000602082015250565b6000612a4a602183612540565b9150612a55826129ee565b604082019050919050565b60006020820190508181036000830152612a7981612a3d565b9050919050565b7f4552433732313a20617070726f76652063616c6c6572206973206e6f7420746f60008201527f6b656e206f776e6572206f7220617070726f76656420666f7220616c6c000000602082015250565b6000612adc603d83612540565b9150612ae782612a80565b604082019050919050565b60006020820190508181036000830152612b0b81612acf565b9050919050565b7f4e465420646f6573206e6f742065786973742100000000000000000000000000600082015250565b6000612b48601383612540565b9150612b5382612b12565b602082019050919050565b60006020820190508181036000830152612b7781612b3b565b9050919050565b7f455448206e6f7420656e6f756768210000000000000000000000000000000000600082015250565b6000612bb4600f83612540565b9150612bbf82612b7e565b602082019050919050565b60006020820190508181036000830152612be381612ba7565b9050919050565b7f4e487b7100000000000000000000000000000000000000000000000000000000600052601160045260246000fd5b6000612c248261232e565b9150612c2f8361232e565b925082821015612c4257612c41612bea565b5b828203905092915050565b7f4e487b7100000000000000000000000000000000000000000000000000000000600052600160045260246000fd5b7f4552433732313a2063616c6c6572206973206e6f7420746f6b656e206f776e6560008201527f72206f7220617070726f76656400000000000000000000000000000000000000602082015250565b6000612cd8602d83612540565b9150612ce382612c7c565b604082019050919050565b60006020820190508181036000830152612d0781612ccb565b9050919050565b7f4552433732313a20696e76616c696420746f6b656e2049440000000000000000600082015250565b6000612d44601883612540565b9150612d4f82612d0e565b602082019050919050565b60006020820190508181036000830152612d7381612d37565b9050919050565b7f4552433732313a2061646472657373207a65726f206973206e6f74206120766160008201527f6c6964206f776e65720000000000000000000000000000000000000000000000602082015250565b6000612dd6602983612540565b9150612de182612d7a565b604082019050919050565b60006020820190508181036000830152612e0581612dc9565b9050919050565b7f4e465420646f6573206e6f74206f776e206279207468652066726f6d2061646460008201527f7265737321000000000000000000000000000000000000000000000000000000602082015250565b6000612e68602583612540565b9150612e7382612e0c565b604082019050919050565b60006020820190508181036000830152612e9781612e5b565b9050919050565b7f5472616e7366657220746f20302061646472657373206e6f7420616c6c6f776560008201527f6421000000000000000000000000000000000000000000000000000000000000602082015250565b6000612efa602283612540565b9150612f0582612e9e565b604082019050919050565b60006020820190508181036000830152612f2981612eed565b9050919050565b600081905092915050565b7f7b226e616d65223a220000000000000000000000000000000000000000000000600082015250565b6000612f71600983612f30565b9150612f7c82612f3b565b600982019050919050565b60008190508160005260206000209050919050565b60008154612fa9816129bd565b612fb38186612f30565b94506001821660008114612fce5760018114612fdf57613012565b60ff19831686528186019350613012565b612fe885612f87565b60005b8381101561300a57815481890152600182019150602081019050612feb565b838801955050505b50505092915050565b7f222c200000000000000000000000000000000000000000000000000000000000600082015250565b6000613051600383612f30565b915061305c8261301b565b600382019050919050565b7f226465736372697074696f6e223a220000000000000000000000000000000000600082015250565b600061309d600f83612f30565b91506130a882613067565b600f82019050919050565b7f2200000000000000000000000000000000000000000000000000000000000000600082015250565b60006130e9600183612f30565b91506130f4826130b3565b600182019050919050565b7f7d00000000000000000000000000000000000000000000000000000000000000600082015250565b6000613135600183612f30565b9150613140826130ff565b600182019050919050565b600061315682612f64565b91506131628285612f9c565b915061316d82613044565b915061317882613090565b91506131848284612f9c565b915061318f826130dc565b915061319a82613128565b91508190509392505050565b60006131b182612535565b6131bb8185612f30565b93506131cb818560208601612551565b80840191505092915050565b60006131e382856131a6565b91506131ef82846131a6565b91508190509392505050565b7f4e465420616c7265616479206578697374732100000000000000000000000000600082015250565b6000613231601383612540565b915061323c826131fb565b602082019050919050565b6000602082019050818103600083015261326081613224565b9050919050565b7f4552433732313a207472616e736665722066726f6d20696e636f72726563742060008201527f6f776e6572000000000000000000000000000000000000000000000000000000602082015250565b60006132c3602583612540565b91506132ce82613267565b604082019050919050565b600060208201905081810360008301526132f2816132b6565b9050919050565b7f4552433732313a207472616e7366657220746f20746865207a65726f2061646460008201527f7265737300000000000000000000000000000000000000000000000000000000602082015250565b6000613355602483612540565b9150613360826132f9565b604082019050919050565b6000602082019050818103600083015261338481613348565b9050919050565b7f4552433732313a20617070726f766520746f2063616c6c657200000000000000600082015250565b60006133c1601983612540565b91506133cc8261338b565b602082019050919050565b600060208201905081810360008301526133f0816133b4565b9050919050565b7f4552433732313a207472616e7366657220746f206e6f6e20455243373231526560008201527f63656976657220696d706c656d656e7465720000000000000000000000000000602082015250565b6000613453603283612540565b915061345e826133f7565b604082019050919050565b6000602082019050818103600083015261348281613446565b9050919050565b7f4e487b7100000000000000000000000000000000000000000000000000000000600052601260045260246000fd5b7f4552433732313a206d696e7420746f20746865207a65726f2061646472657373600082015250565b60006134ee602083612540565b91506134f9826134b8565b602082019050919050565b6000602082019050818103600083015261351d816134e1565b9050919050565b7f4552433732313a20746f6b656e20616c7265616479206d696e74656400000000600082015250565b600061355a601c83612540565b915061356582613524565b602082019050919050565b600060208201905081810360008301526135898161354d565b9050919050565b600081519050919050565b600082825260208201905092915050565b60006135b782613590565b6135c1818561359b565b93506135d1818560208601612551565b6135da8161236e565b840191505092915050565b60006080820190506135fa600083018761263e565b613607602083018661263e565b6136146040830185612727565b818103606083015261362681846135ac565b905095945050505050565b6000815190506136408161229f565b92915050565b60006020828403121561365c5761365b612269565b5b600061366a84828501613631565b9150509291505056fea2646970667358221220af716a84b98754afb70c68c4ce8c694d2f7d6a8019215d7cc7843f3c777fe81c64736f6c634300080d0033",
  "immutableReferences": {},
  "source": "// SPDX-License-Identifier: MIT\npragma solidity ^0.8.9;\n\nimport \"../@openzeppelin/contracts/token/ERC721/ERC721.sol\";\n\ncontract MyToken is ERC721 {\n    constructor() ERC721(\"MyToken\", \"MT\") {}\n    struct TokenMetadata {\n        string name;\n        string description;\n    }\n    mapping(uint256 => TokenMetadata) tokens;\n    mapping(uint256 => bool) tokenExist;\n    mapping(uint256 => bool) public onSale;\n    mapping(uint256 => uint) public price;\n\n    function mint(uint256 _id, string memory _name, string memory _description) private {\n        require(!tokenExist[_id], \"NFT already exists!\");\n\n        tokens[_id] = TokenMetadata(_name, _description);\n        _mint(msg.sender, _id);\n        tokenExist[_id] = true;\n    }\n\n    function createNFT(uint256 _id, string memory _name, string memory _description) public {\n        mint(_id, _name, _description);\n    }\n\n    function ownership(uint256 _id) public view returns(address) {\n        return ownerOf(_id);\n    }\n\n    function getMetadata(uint256 _id) public view returns(string memory) {\n        require(tokenExist[_id], \"NFT does not exist!\");\n        string memory json = string(\n        abi.encodePacked(\n            '{\"name\":\"', tokens[_id].name, '\", ',\n            '\"description\":\"', tokens[_id].description, '\"',\n            // Include any other metadata fields here\n            '}'\n            )\n        );\n        return json;\n    }\n\n    function transferNFT(address _to, uint256 _id) public {\n        require(tokenExist[_id], \"NFT does not exist!\");\n        require(ownerOf(_id) == msg.sender, \"NFT does not own by the from address!\");\n        require(_to != address(0), \"Transfer to 0 address not allowed!\");\n\n        safeTransferFrom(msg.sender, _to, _id);\n        emit Transfer(msg.sender, _to, _id);\n    }\n\n    function listNFTForSale(uint256 _id, uint _price) public {\n        require(tokenExist[_id], \"NFT does not exist!\");\n        require(ownerOf(_id) == msg.sender, \"NFT does not own by the from address!\");\n\n        price[_id] = _price;\n        onSale[_id] = true;\n    }\n\n    function removeNFTFromSale(uint256 _id) public {\n        require(tokenExist[_id], \"NFT does not exist!\");\n        require(ownerOf(_id) == msg.sender, \"NFT does not own by the from address!\");\n\n        onSale[_id] = false;\n    }\n\n    function purchaseNFT(uint256 _id) public payable {\n        require(tokenExist[_id], \"NFT does not exist!\");\n        require(msg.value >= price[_id], \"ETH not enough!\");\n\n        if(msg.value>price[_id]) {\n            assert(msg.value-price[_id] < msg.value);\n            payable(msg.sender).transfer(msg.value-price[_id]);\n        }\n        payable(ownerOf(_id)).transfer(price[_id]);\n        _transfer(ownerOf(_id), msg.sender, _id); // TODO: not safe. Any other method?\n        onSale[_id] = false;\n        emit Transfer(ownerOf(_id), msg.sender, _id);\n    }\n}\n",
  "sourcePath": "E:\\Columbia\\2023Spring\\6883\\6883_proj\\nft\\contracts\\MyToken.sol",
  "compiler": {
    "name": "solc",
    "version": "0.8.13+commit.abaa5c0e.Emscripten.clang"
  },
  "schemaVersion": "3.4.13",
  "updatedAt": "2023-05-08T01:21:16.464Z",
  "networkType": "ethereum",
  "devdoc": {
    "kind": "dev",
    "methods": {
      "approve(address,uint256)": {
        "details": "See {IERC721-approve}."
      },
      "balanceOf(address)": {
        "details": "See {IERC721-balanceOf}."
      },
      "getApproved(uint256)": {
        "details": "See {IERC721-getApproved}."
      },
      "isApprovedForAll(address,address)": {
        "details": "See {IERC721-isApprovedForAll}."
      },
      "name()": {
        "details": "See {IERC721Metadata-name}."
      },
      "ownerOf(uint256)": {
        "details": "See {IERC721-ownerOf}."
      },
      "safeTransferFrom(address,address,uint256)": {
        "details": "See {IERC721-safeTransferFrom}."
      },
      "safeTransferFrom(address,address,uint256,bytes)": {
        "details": "See {IERC721-safeTransferFrom}."
      },
      "setApprovalForAll(address,bool)": {
        "details": "See {IERC721-setApprovalForAll}."
      },
      "supportsInterface(bytes4)": {
        "details": "See {IERC165-supportsInterface}."
      },
      "symbol()": {
        "details": "See {IERC721Metadata-symbol}."
      },
      "tokenURI(uint256)": {
        "details": "See {IERC721Metadata-tokenURI}."
      },
      "transferFrom(address,address,uint256)": {
        "details": "See {IERC721-transferFrom}."
      }
    },
    "version": 1
  },
  "userdoc": {
    "kind": "user",
    "methods": {},
    "version": 1
  }
}